:020000040008F2
:1000000000200820BD420800FD0E0800033B080048
:10001000FF0E0800010F0800030F08000000000099
:10002000000000000000000000000000050F0800B4
:10003000070F080000000000090F0800373B080008
:100040000B0F08000D0F08000F0F0800110F08001C
:10005000130F0800150F0800170F0800190F0800EC
:10006000092608001B0F0800733B0800C73B080067
:100070001D0F0800272608006719080091190800BD
:100080001F0F0800210F080007300800230F080089
:10009000250F0800270F0800290F08002B0F080064
:1000A0002D0F08002F0F0800310F0800330F080034
:0C00B000350F0800370F0800FB0E080099
:1000BC0010B584B001A8DFF858180CC90CC0083969
:1000CC000838DFF8000C00788DF806000024DFF803
:1000DC00CC0ADFF8CC1A0860DFF8C00ADFF8E81B9E
:1000EC000860DFF8B80ADFF8E41B08600020DFF8CE
:1000FC00E01B0870DFF8DC0B006800905FF4001068
:10010C00DFF8101808605FF40000DFF8681C086066
:10011C005FF08070DFF85C1C0860642100A800F0C0
:10012C0005FF0028F9D05FF40010DFF8481C0860C8
:10013C00DFF8A00B006800904FF47A7100A800F073
:10014C00F5FE0028F8D0DFF88C0B00680090DFF883
:10015C00480C0068C00709D4E4B2002C06D14FF457
:10016C007A7100A800F0E2FE0400F0E7E4B2002C83
:10017C0010D100F025F800F0CFFB01A800F0B5FB82
:10018C008DF8080001A800F049FA4FF47A713E206E
:10019C0000F00AFB1FBD0020C82801D2401CFBE761
:1001AC005FF08070DFF86C1708600020142801D213
:1001BC00401CFBE75FF08070DFF8B81B08607047ED
:1001CC00F0B58BB006A8DFF8201A112200F0CCFE97
:1001DC0000A8DFF8181A182200F0D6FE0027DFF866
:1001EC00B80B0068C00740F10B81DFF8040A006807
:1001FC0006000020DFF8FC190860DFF8FC09006835
:10020C00C00009D5DFF8F009006830F08050DFF845
:10021C00E8190860761E15E0FFF7BDFFDFF8780BD4
:10022C00006840070ED4DFF8CC09006842F2107168
:10023C00884207D2DFF8BC090068401CDFF8B4190B
:10024C000860EBE7DFF8AC09006842F211718842F4
:10025C0005D300F0D7F806A800F0D8FED0E0DFF800
:10026C00380B006830F00400DFF82C1B0860DFF856
:10027C00580A00680078A42840F08680DFF87809D6
:10028C00006850F08060DFF870190860FFF783FF9A
:10029C00DFF8040B0068C0070ED5DFF858090068BA
:1002AC0042F21071884207D2DFF848090068401CFE
:1002BC00DFF840190860EBE7DFF83C09006830F024
:1002CC008060DFF834190860DFF8CC0A006830F081
:1002DC000400DFF8C41A0860DFF81809006842F25D
:1002EC001071884246D2DFF808090068861BDFF8D7
:1002FC00D80900680078040000F09AF8DFF8C80903
:10030C0000680078801C0500EDB2A81C864207D05E
:10031C00DFF8E408006850F00100DFF8DC18086032
:10032C00DFF8A40900680078444000F081F86D1EE5
:10033C00EDB2002DF4D1DFF8900900680078E4B23A
:10034C0084420ED1DFF888090078401CDFF8801950
:10035C000870DFF884090068401CDFF87C1908601D
:10036C001BE0DFF864090068DFF86019086000F032
:10037C0073F812E0DFF8000A0068401CDFF8F81987
:10038C0008600120070008E0DFF8F0090068401C55
:10039C00DFF8E819086001200700FFB2002F2DD00C
:1003AC0000A800F033FEDFF8F0090068C00710D594
:1003BC00DFF84008006842F21071884209D2DFF879
:1003CC0034080068401CDFF82C180860FFF7E3FEC7
:1003DC00E9E7DFF8CC070068DFF8EC180860DFF815
:1003EC00C0070068DFF8E4180860DFF8AC090068A3
:1003FC0030F00600DFF8A019086001E000F018F8F2
:10040C000BB0F0BD72B6DFF89407DFF894170860F4
:10041C00DFF88807DFF8B0180860DFF88007DFF82E
:10042C00AC1808600020DFF8A818087062B6704796
:10043C00DFF894080068401CDFF88C180860DFF8BF
:10044C0088080068DFF85419884204D1DFF84C079B
:10045C00DFF8741808607047DFF870080068401CFB
:10046C00DFF868180860DFF864080068DFF82C19FA
:10047C00884204D1DFF82407DFF850180860704771
:10048C0038B5DFF89C090068C00109D5DFF894097C
:10049C0000F0BCFDDFF89009DFF890190860B6E0B9
:1004AC005FF40010DFF888190860DFF8880900F0A5
:1004BC00ADFD0020DFF8801908600020DFF87C1902
:1004CC0008600020DFF8FC1708701020DFF8F41724
:1004DC0048700020DFF8EC178870FF20DFF8E41775
:1004EC00C870FF20DFF8DC1708710120DFF8D41783
:1004FC0048711020DFF8CC178871CD20DFF8C417B5
:10050C00C8710C20DFF8BC1708723720DFF8B4175D
:10051C0048720320DFF8AC1788720420DFF820192A
:10052C000870DFF82009DFF8181948605FF48000C4
:10053C00DFF80C1988600120DFF804190873022019
:10054C00DFF8FC1848730FF24530DFF8F418086137
:10055C000FF25130DFF8E8184861DFF84006DFF899
:10056C00E0188861DFF83806DFF8D418C8614FF45A
:10057C008070DFF8CC180884DFF8C40801F088F824
:10058C00DFF8C41808600020DFF80C180860FFF7CB
:10059C008FFDDFF8B8080078C00617D5DFF8B00873
:1005AC0000F034FDDFF8AC0800F030FD00F040FD49
:1005BC00DFF8A408006830F48030DFF89C1808607D
:1005CC000FF21970DFF86418086020E0DFF88C086F
:1005DC0000F01CFD5FF0307004005FF0F07005005F
:1005EC00DFF87C080460DFF87C080460DFF878082A
:1005FC000560DFF850080560DFF870080460DFF86C
:10060C00700805600FF6E500DFF82018086031BDB2
:10061C0080B5DFF818080068804701BDF0B599B0C7
:10062C000400DFF85008076810A8DFF84C182122E6
:10063C0000F09AFC0AA8DFF84418152200F094FC8C
:10064C0005A8DFF83C18122200F08EFC00A8DFF899
:10065C003418112200F088FCDFF89C05006810F0BB
:10066C00406F04D010A800F0D1FC00209AE00020CC
:10067C00DFF8801508605FF40000DFF8981208605E
:10068C00DFF814070068C0070ED4DFF868050068AF
:10069C0042F21071884207D2DFF858050068401CFE
:1006AC00DFF850150860EBE7DFF84805006842F208
:1006BC001171884209D35FF40000DFF8B8160860A6
:1006CC000AA800F0A3FC00206CE0FFF764FDDFF843
:1006DC00C806006840070ED4DFF81805006842F21F
:1006EC001071884207D2DFF80C050068401CDFF857
:1006FC0004150860EBE75FF40000DFF8781608607B
:10070C00DFF8F004006842F21171884204D30AA8A1
:10071C0000F07CFC002045E0DFF8AC0500680078B8
:10072C000500EDB2A42D09D1DFF8CC04006850F01F
:10073C008050DFF8C4140860002033E0FFF778FE27
:10074C00FFF78AFEDFF85006006830F00400DFF88F
:10075C0048160860EDB2A52D20D1DFF89C04006886
:10076C0050F00060DFF8901408602078C01C060080
:10077C0022003100DFF8D006006801F02DF8DFF818
:10078C0008170860DFF800070068002801D0012076
:10079C0008E005A800F03AFC002003E000A800F0F7
:1007AC0035FC002019B0F0BDF0B589B004000D0087
:1007BC0000260127DFF8BC060068009001A8DFF8CE
:1007CC00CC161A2200F0D0FBDFF808050068009068
:1007DC00DFF8C4050068C00709D5F6B2002E06D1B3
:1007EC004FF47A7100A800F0A1FB0600F0E7F6B216
:1007FC00002E20D1DFF86006006830F00060DFF8D2
:10080C005816086000F04DFA0020DFF87C160860DE
:10081C00DFF8C00400680090DFF87C050068C007B2
:10082C0009D4F6B2002E06D14FF47A7100A800F06C
:10083C007DFB0600F0E7F6B2002E1BD1FFF7C0FCE3
:10084C00DFF88C040078002814D0DFF880040068EE
:10085C00807840280ED1DFF8740400680079E4B287
:10086C00A04207D1DFF8640400684079002801D168
:10087C000020070000F050F8F6B2002E02D001A8BC
:10088C0000F0C4FB3800C0B209B0F0BD80B5DFF891
:10089C0000060068401CDFF8F8150860FFF77BFCC9
:1008AC0001BD000080B5DFF848030068401CDFF88C
:1008BC0040130860DFF8E8040068401CDFF8E0141F
:1008CC000860DFF8DC040068DFF8D014884204D13B
:1008DC00DFF8D004DFF8C8140860DFF87C05006886
:1008EC00400101D5FFF757FC01BD10B40100087899
:1008FC00821CA5200023DBB2D2B2934204D20C7826
:10090C006040491C5B1CF6E7C0B210BC704700008D
:10091C00C8420800340E0E4030B585B0DFF8B00385
:10092C000078002801D1012036E1DFF86C05006861
:10093C00401CDFF864150860DFF894030078401E53
:10094C00DFF88C130870FFF787FDDFF88003006871
:10095C0000780400E4B2122C01DB01201CE100251C
:10096C00EDB2E4B2E01C85420ADADFF860030068FD
:10097C00007800A9EDB26854FFF76EFD6D1CEFE72F
:10098C009DF801003E2800F0E58040280CD04E2850
:10099C0000F0D2804F2800F0C280522800F0D9809D
:1009AC006F2800F0EB80F0E09DF80300012859D08F
:1009BC009DF8030041282DD0422826D04B2802D088
:1009CC004C2815D034E0DFF8D40400F01FFBDFF81E
:1009DC008804006850F40020DFF87C140860DFF80D
:1009EC007804006830F48020DFF86C14086023E091
:1009FC00DFF8AC0400F00AFBDFF85C04006830F4AC
:100A0C00C010DFF85414086016E0DFF8980400F00A
:100A1C00FDFA11E0DFF8900400F0F8FADFF8380482
:100A2C000068DFF888140840DFF82C14086003E035
:100A3C00DFF87C0400F0EAFA9DF80400002804D1E9
:100A4C00DFF80C0400F0E2FA68E0DFF8680400F06C
:100A5C00DDFADFF80404006850F00200DFF8F81348
:100A6C0008605BE09DF8040000280AD0022809D039
:100A7C0003282AD0052830D006283AD007283CD0A5
:100A8C0044E04BE0DFF830040078401CDFF8281419
:100A9C000870DFF824040078002812D1DFF81C0459
:100AAC000078401CDFF814140870DFF8100400788C
:100ABC00002806D1DFF808040078401CDFF8001489
:100ACC000870022000F06EF828E07E48407810286C
:100ADC0002D1032000F066F820E0DFF87C03006808
:100AEC0050F08070DFF870130860052000F05AF8A1
:100AFC0014E0062000F056F810E0DFF85C03006804
:100B0C0030F40020DFF85013086007E0DFF84803EA
:100B1C00006850F00400DFF8401308603BE00DF172
:100B2C000301012000F06AF866484078002802D1E1
:100B3C00002000F037F82EE00DF10301012000F049
:100B4C005DF860484078002802D1002000F02AF8B7
:100B5C0021E020E00020C0B20A2808DA00A9C0B2C7
:100B6C0041188978BB4AC0B28154401CF3E7B7489E
:100B7C00006850F01000B54908600CE0B6480068F9
:100B8C0050F48030B449086005E0B348006850F078
:100B9C000800B1490860002005B030BDB01100203C
:100BAC00E01600201CB50400FF208DF800008DF825
:100BBC000140FF208DF80200FF208DF80300FF207C
:100BCC008DF80400BE4800788DF80500BB4800780D
:100BDC008DF80600B84800788DF8070000A90220AF
:100BEC0000F00CF813BD000058420800F841080052
:100BFC00CC160020C0160020B41600202DE9F041C0
:100C0C008CB004000D005FF0000800A8AD492B2249
:100C1C0000F0AAF9142001F08DF90600002E04D181
:100C2C0000A800F0F3F9002038E00020C0B208283A
:100C3C0006DAC0B2415DC0B282195171401CF5E7B1
:100C4C002448006830603471002030617A480068B4
:100C5C00002807D1784806608E480068401C8D49F2
:100C6C0008601AE07448006807003869002803D04F
:100C7C003F6918F10108F8E75FFA88F8B8F1200F1E
:100C8C0006D23E6183480068401C8249086004E03B
:100C9C0000A800F0BBF9002000E001200CB0BDE87A
:100CAC00F08110B56548006800280AD063480068D8
:100CBC00040062480068806960490860200001F007
:100CCC0091F910BD94160020E4160020E8160020BF
:100CDC00E617002050170020F816002070B50124EC
:100CEC0000255D480068000420D0774800F08EF99C
:100CFC006D1C0026F6B2042E12DA5748006820420A
:100D0C000BD07248EDB2142101FB050000F07EF906
:100D1C0051480068A043504908606400761CE9E71C
:100D2C004D480068000C00044B490860FFF7F4FDC7
:100D3C0019480068C00704D50FF245003B4908600C
:100D4C0016E051480068002812D13C480068002881
:100D5C000ED03A480068001DFFF760FC002807D051
:100D6C005B4800685B4908600FF23D002F49086042
:100D7C0070BD0000300E0E40D0160020D41600209E
:100D8C0080B555480068401C53490860FFF718FAB5
:100D9C0052482649086001BD7C170020B012002083
:100DAC00E0160020B011002010B53748006801F0A3
:100DBC0059F90400E4B22000001F01282ED8FFF7D7
:100DCC0070FF0020304908602348006830F0006054
:100DDC002149086042480068C0070BD53D480068AF
:100DEC0042F21071884205D23A480068401C3949D9
:100DFC000860EFE73B48006842F21171884209D362
:100E0C00394800F003F936480068C00702D5FFF7EF
:100E1C00C2F9F8E7314805490860FFE710BD00004A
:100E2C003817002004010020F90E0800BC16002021
:100E3C00100E0E4064020020B8160020F0160020A0
:100E4C008C150020000E0E40DC1600203C170020F4
:100E5C0050030020A0160020B4160020B001002082
:100E6C00040C0E40000C0E40040E0E40140C0E40F0
:100E7C00140E0E4054170020A03F0800104208002A
:100E8C006C42080080420800D81600206C41080013
:100E9C00C8160020EC160020FC16002004030020CD
:100EAC00F0020020DC0200204C020020FEFFE3FFD9
:100EBC003002002058030020E9170020E81700201A
:100ECC00E71700204C3F0800400300207000002072
:100EDC0050170020C4160020F4160020E90C08005E
:100EEC007C170020C0160020D00100207047FEE7C0
:100EFC00FEE7FEE7FEE7FEE7FEE7FEE7FEE7FEE7BE
:100F0C00FEE7FEE7FEE7FEE7FEE7FEE7FEE7FEE7AD
:100F1C00FEE7FEE7FEE7FEE7FEE7FEE7FEE7FEE79D
:100F2C00FEE7FEE7FEE7FEE7FEE7FEE710B4020091
:100F3C000C4800681468A04205D30A48006814687D
:100F4C00001B030007E05FF0FF301468001B054C2A
:100F5C002468201803008B4201D2002000E00120FD
:100F6C0010BC70475017002062B38B0708D0521E7C
:100F7C0011F8013B00F8013B00F024808B07F6D1FF
:100F8C00830740F0208000BF103A07D330B4B1E89B
:100F9C003810103AA0E83810F9D230BC530724BFEF
:100FAC00B1E80810A0E8081044BF51F8043B40F821
:100FBC00043BD20724BF31F8022B20F8022B44BF8C
:100FCC000B7803707047083A07D3B1E80810083A59
:100FDC0040F8043B40F804CBF7D25307E4E710B4D5
:100FEC0050F8041B81B102681218001D50F8043B24
:100FFC00DC0744BFA9F10104E31852F8044B43F891
:10100C00044B091FF9D1EBE710BC704770B5040015
:10101C00250000262878002802D0761C6D1CF9E7E4
:10102C0022003100DFF8B005006801F033FA70BD22
:10103C0080B5DFF8A8050088ADF8000000AA0221F1
:10104C00DFF89405006801F025FA01BD2DE9FE4397
:10105C00040000250026DFF888850020C0B20A288D
:10106C0019DAB4FBF8F1303100AAC0B2815400A9EE
:10107C00C0B2415C302901D001210D00EDB2002D30
:10108C0000D0761CB4FBF8F108FB11440A21B8FB24
:10109C00F1F8401CE2E7EDB2002D01D10120060071
:1010AC00F6B2300000F046FF8146B9F1000F08D1CE
:1010BC000220DFF8301508700FF2E940DFF8281530
:1010CC000860092007003000C0B2002809D000A930
:1010DC00795CC0B210EB090202F8011C7F1E401EA5
:1010EC00F2E74A46F6B23100DFF8EC04006801F092
:1010FC00D1F9484600F076FFBDE8F78370B5A4B08F
:10110C0000A8DFF8E8140522FFF72EFF11A8DFF87E
:10111C00E0144822FFF738FF0124012502A8DFF86C
:10112C00D4143C22FFF730FF11A8FFF76FFF002605
:10113C00F6B2062E12DADFF8C004006804420AD1B7
:10114C000020050002A8F6B20A2101FB0600FFF7F9
:10115C005DFFFFF76DFF6400761CE9E7EDB2002D33
:10116C0002D000A8FFF752FFFFF762FF24B070BD5A
:10117C0000B585B0002080B2802806D20021DFF8AF
:10118C007C2480B28154401CF5E7DFF87004DFF852
:10119C0070140860DFF86404DFF868140860DFF886
:1011AC006804DFF86814086002208DF80000DFF88E
:1011BC004C040190DFF84C0402908020ADF8020042
:1011CC000FF25900039000A801F0B0F8DFF80814F2
:1011DC000860DFF804040068002805D10FF2C53060
:1011EC00DFF80414086010E0DFF82404FFF70EFFAA
:1011FC00DFF80404006850F00400DFF8FC1308600A
:10120C000FF2ED10DFF8E013086005B000BD80B5FB
:10121C00DFF8D4030068804701BD0000DFF8E40369
:10122C000068401CDFF8DC130860DFF8D8030068A6
:10123C00DFF8E013884204D1DFF8C003DFF8C413F1
:10124C000860704710B592B00AA8DFF8CC131922C9
:10125C00FFF78AFE3A208DF8020020208DF803005B
:10126C000A208DF824000D208DF825000AA8FFF720
:10127C00CDFE0024E4B2082C2CDAE4B20A2C07DBF5
:10128C00E4B20A2094FBF0F030308DF8000002E05C
:10129C0030208DF80000E4B20A2094FBF0F100FB42
:1012AC00114030308DF801000020C0B220280CDA3B
:1012BC00DFF86813E4B251F83410C0B2415C00AAF4
:1012CC00C0B282181171401CEFE700A8FFF79EFE18
:1012DC00641CCFE7FFF7ACFE12B010BD10B584B0A4
:1012EC0000A8DFF83C131CC91CC00C390C3800A832
:1012FC00FFF78CFE1FBD10B584B000A8DFF82413D7
:10130C001CC91CC00C390C3800A8FFF77FFEDFF895
:10131C0018030078C0070AD5DFF80C0300684008F2
:10132C004000C1490860C148FFF770FE08E0BE48A4
:10133C00006850F00100BC490860BD48FFF766FE2C
:10134C001FBD10B50400E4B2572C02D1002001F0EF
:10135C00ECFAE4B2502C02D1012001F0E6FAE4B22E
:10136C00422C02D1022001F0E0FAE4B2432C02D16B
:10137C00032001F0DAFAE4B2472C02D1042001F088
:10138C00D4FAE4B2592C02D1052001F0CEFAE4B221
:10139C004F2C02D1062001F0C8FAE4B2522C02D133
:1013AC00072001F0C2FA10BD00B589B000A8A14910
:1013BC002322FFF7D9FD00A8FFF728FE9A480078F2
:1013CC00C00709D598480068400840009649086055
:1013DC009648FFF71BFE08E09348006850F00100A8
:1013EC00914908609248FFF711FE09B000BD00005A
:1013FC0038B500248248006882490968884262D066
:10140C00E4B2002C5FD17E480068007805008A4861
:10141C000078012803D12800C0B2FFF792FFEDB28B
:10142C002800082802D00D2813D018E0774800684F
:10143C007549884209D075480068401E7349086098
:10144C007E480088401E7D4908807D48FFF7DEFD00
:10145C002BE0012004000FF2810063490860290091
:10146C00C9B25D48006800F0FDFF6848006805706F
:10147C0066480068401C6549086070480088401C3C
:10148C006E490880614800686E4988420DD3EDB200
:10149C000D2D0AD05C485D49086000206749088022
:1014AC006948FFF7B3FD6949086055480068401C5E
:1014BC005349086052480068564988429AD34F48AD
:1014CC004F49086096E761480068002803D05F48E0
:1014DC00006800F0C7FD31BD70B501240020050087
:1014EC004948EDB2285C5A49EDB2695C884201D09A
:1014FC00002004006D1CE4B2002C02D0EDB2042DCF
:10150C00EEDBE4B2002C2ED0002004003E48EDB2FD
:10151C002856303806006D1C76B2002E23D476B2D5
:10152C000A2E20DA0A2000FB06F04A4908703648D9
:10153C00EDB22856303806006D1C76B2002E12D44F
:10154C0076B20A2E0FDA43480078301841490870F9
:10155C0040480078082806DA2B48EDB2285C0D28A4
:10156C0001D101200400E4B2002C04D00FF21D00C4
:10157C001D49086005E03848FFF748FD37481A490F
:10158C00086021482149086070BD000080B53348CF
:10159C001549086021482F49097810EBC1004068B3
:1015AC00804701BD80B52048006850F000401E49BE
:1015BC0008602B48FFF72AFD0A480078FFF746FD24
:1015CC00FFF736FD00201D4908800F480F490860C1
:1015DC0022480549086001BD1C1700202E3D08005B
:1015EC0000CA9A3BEA17002018170020D0420800C6
:1015FC00C83E0800103F08003C170020B013002024
:10160C002817002024170020B01400202C170020CD
:10161C00C000002030140020884108004401002044
:10162C00A4420800B04208001417002078030020E0
:10163C0070030020E44008008A030020E417002017
:10164C0080030020F0140020F0010020201700205F
:10165C0068030020EB1700202C030020FD1308006A
:10166C007C020020012110F01F029140DFF850286D
:10167C0040B2430942F823107047012110F01F02B9
:10168C009140DFF8402840B2430942F823107047DC
:10169C002DE9F04704002078022804D034D3042824
:1016AC0021D010D330E0DFF82008050050200600D0
:1016BC00DFF818080700082080467FF008008146F4
:1016CC001A20824622E0DFF8080805006020060098
:1016DC00DFF800080700002080465FF0FF308146ED
:1016EC003020824612E0DFF8F0070500502006009B
:1016FC00DFF8E80707005FF4002080465FF0FF305A
:10170C0081460020824601E0002063E02869C00287
:10171C0001D500205EE0DFF8C8070068012195F9CB
:10172C00262091400843DFF8B817086060686860AD
:10173C00A068A860207B2873607B6873206968614F
:10174C006069A861A069E861E0692862208CA884BE
:10175C00286950F480102861286806602868476062
:10176C002868C0F808802868C0F80C902868C0F871
:10177C0020A0687B01281BD1A0692968C1F8000151
:10178C00A069401C2968C1F8100101202968C1F822
:10179C00040101202968C1F814010020286240F2DC
:1017AC0001102968C1F820015FF4002029688860C5
:1017BC00687B022803D1DFF82C072968886095F92B
:1017CC00260040B2FFF759FF95F9260040B2FFF70B
:1017DC0049FF2800BDE8F087F8B504000D0016009D
:1017EC003200290014F1280000F058FC0700002FEB
:1017FC0001D1002007E0DFF8F4060068002801D5CD
:10180C0000F087F83800F2BD70B5DFF8E806DFF8B5
:10181C00B81608600020DFF8B01648600020DFF82A
:10182C00A81688620020DFF8A016C8610020DFF837
:10183C00981688840020DFF8901608620020DFF8E4
:10184C00881608610D20DFF8801681F82600DFF875
:10185C00A806DFF87C1608600020DFF874164860D4
:10186C000020DFF86C1688620020DFF86416C8616F
:10187C000020DFF85C1688840020DFF8541608621C
:10188C000020DFF84C1608610E20DFF8441681F8B2
:10189C002600DFF86806DFF8401608600020DFF845
:1018AC00381648600020DFF8301688620020DFF818
:1018BC002816C8610020DFF8201688840020DFF885
:1018CC00181608620020DFF8101608610F20DFF8E8
:1018DC00081681F82600DFF8F005DFF824160860FA
:1018EC008024FF25DFF808662A002100300001F073
:1018FC004BF90FF20D40DFF8F0150860DFF8040625
:10190C00FFF784FB70BD80B5DFF8DC05006880470D
:10191C0001BD80B5DFF8F005006850F00100DFF87C
:10192C00E8150860DFF8A005DFF8D4150860DFF8CB
:10193C00D8050078C0070FD5DFF8AC0500688047E4
:10194C00DFF8C8050068DFF8C81508600121DFF86A
:10195C00C005FFF7EBFAEAE701BD80B5DFF87005CB
:10196C00DFF8B0150860DFF8B405DFF8AC150860D7
:10197C00DFF8AC050068401CDFF8A415086000F027
:10198C0016F801BD80B5DFF85005DFF88815086042
:10199C00DFF89005DFF880150860DFF88C0500682B
:1019AC00401CDFF88415086000F001F801BD70B52B
:1019BC00DFF860050068006840690600DFF8540530
:1019CC00006800680069000338D5300336D5DFF8AD
:1019DC00440500684068C06BDFF8381509688968F1
:1019EC00084214D1DFF830050068006850F001009F
:1019FC00DFF8241509680860DFF81C05006800682A
:101A0C0030F00600DFF810150968086016E0DFF802
:101A1C0008050068006840084000DFF8FC140968FD
:101A2C000860DFF8F0040068407B012806D1012033
:101A3C00DFF8E01409680968C1F80401DFF8D40480
:101A4C00006800680069800570D5B0056ED5DFF8B8
:101A5C00C4040068C06A401EDFF8B8140968C86284
:101A6C00DFF8B0040068006880690400DFF8A404A3
:101A7C000068C06A002825D0DFF898040068006B65
:101A8C00401CDFF8901409680863DFF888040068CC
:101A9C00006B00780400DFF87C040068007B0128F0
:101AAC0003D194FAA4F0000E04002000C0B2DFF8B9
:101ABC00641409680968C861DFF858040068406953
:101ACC00804733E04FF40070DFF848140968096868
:101ADC00C860DFF840040068006930F40010DFF8DB
:101AEC003414096808610421DFF828040068806A4E
:101AFC00006800F0B9FBDFF81C040068283000F027
:101B0C004AFB0120DFF80C14096809688860DFF8CB
:101B1C0008040068006850F00200DFF8FC13096844
:101B2C000860DFF8F003006840698047DFF8E403E1
:101B3C00006800680069C00737D5DFF8D803006873
:101B4C0000684069C00730D5DFF8C803006800683A
:101B5C008069C0B20400DFF8BC030068007B012878
:101B6C0003D194FAA4F0000E04002000C0B2FF28A8
:101B7C0006D1DFF8B8030068401CDFF8B01308602A
:101B8C00DFF890030068006A00680470DFF88803CF
:101B9C000068006850F00400DFF87C1309680860E6
:101BAC00DFF87003006880698047DFF8680300681D
:101BBC0000680069000762D5300760D5DFF8540370
:101BCC000068407B00282BD10421DFF84803006813
:101BDC00806A006800F048FBDFF8380300682830A2
:101BEC0000F0D9FADFF82C030068006930F48000AB
:101BFC00DFF8201309680861DFF8180300688068B3
:101C0C00C4490968496808630220C249096809681F
:101C1C00C1F820010820BF4909680968C8602EE096
:101C2C00BD480068006850F00400BB4909680860B2
:101C3C00B84800680068D0F81001401CB549096824
:101C4C000968C1F81001B34800680068D0F80001B9
:101C5C00B0490968C969AF4A1268928C5118884218
:101C6C0007D1AC480068C069AA4909680968C1F87D
:101C7C0000010120A74909680968C1F81401A548A9
:101C8C00006800680069C00639D5F00637D5042114
:101C9C00A0480068806A006800F0E6FA9D48006879
:101CAC00283000F078FA9B480068006930F4001086
:101CBC009849096808614FF40070964909680968E9
:101CCC00C1F820011020934909680968C8600020F8
:101CDC0005009048006800684069800503D4642DB5
:101CEC0001D26D1CF5E78B480068407B002806D1BB
:101CFC00884800688068874909684968086370BD2E
:101D0C0010B57F480068806A002800F0B5807C48D8
:101D1C000068006910F4C00F40F0AE80784800688D
:101D2C00407B002806D176480068806874490968B1
:101D3C004968486372480068806A08306C49884278
:101D4C002CD103216E480068806A006800F08CFA80
:101D5C006B480068006950F48000694909680861A3
:101D6C0067480068806A0830654909680968C1F8E5
:101D7C00000163480068806A406861490968096825
:101D8C00C1F8040108205E490968096888600120CF
:101D9C005B4909680968C1F820016DE002215848C7
:101DAC000068806A006800F05FFA554800680069B6
:101DBC0050F4001052490968086151480068407B92
:101DCC0002283BD14E480068806A40684C4909683B
:101DDC00C8624B480068806A083049490968086342
:101DEC0047480068006B0078040045480068007B99
:101DFC00012803D194FAA4F0000E040008204049F5
:101E0C0009680968086040203D490968096808604C
:101E1C002000C0B23A4909680968C86101203849F4
:101E2C0009680968C8604FF4007035490968096889
:101E3C00886033480068406980471DE0304800687E
:101E4C00806A08302E4909680968C1F808012C48D5
:101E5C000068806A40682A4909680968C1F80C0161
:101E6C00102027490968096888604FF4807024495C
:101E7C0009680968C1F820012148006890F826001B
:101E8C000D2804D015D30F2809D004D311E0104825
:101E9C001B49086013E01048194908600FE00A4814
:101EAC001749086018480068400840001649086047
:101EBC0005E01F48FFF7AAF803481149086010BD58
:101ECC0000E100E080E200E0F0140020C0084000D7
:101EDC0024150020CE18450058150020FF1841008D
:101EEC0010040E4001000800801700203817002055
:101EFC0030140020000009400040094000800940D7
:101F0C008C170020AC0200208817002050170020EE
:101F1C0084170020901700209417002078170020B9
:101F2C00981700207C1700209C170020A017002079
:101F3C00C402002070B5054605F10F00C408E4008A
:101F4C00C046C046A54232D2082C04D2082402E076
:101F5C00083000F047F82248026811000CD1011D2E
:101F6C000A6802B31368A34238BF111DF8D310E0FE
:101F7C001D68A5420DD2191D0B68002BF8D11268F3
:101F8C00011D00E0191D0B6893420CD01D68A54281
:101F9C00F8D361B10D682A68A2F10803A3420AD2F2
:101FAC006A680A600FE000F033FE0028D0D1C0460A
:101FBC00C046002070BD63190B60121B6E685E601A
:101FCC000B681A602C60096800291DBF4A68002A3A
:101FDC00091D00210160C046C04605F1080070BD16
:101FEC00AC16002000B9704738B5A0F10804206881
:101FFC00082833D310F0070F30D1C046C04618481C
:10200C00416809B18C4203D26160446017E0194603
:10201C004B680BB1A342FAD30B685D18AC421BD3CF
:10202C00A54204D12268D2180A600C4607E04A681F
:10203C001AB123681B199A420ED362604C60616816
:10204C0051B1226813198B4206D100230360086832
:10205C008018206048686060C046C04631BD0000F2
:10206C00AC1600200100FF209A4A13688B4204D062
:10207C00994B9A4201D00C32F7E7974B9A420BD00E
:10208C0013791800C0B2042802D0C0B2052803D1BD
:10209C000023136000231371C0B270472DE9F84F71
:1020AC0004000D001600AB465FF000098B48007869
:1020BC00102807D18A48006850F001008849086050
:1020CC00002066E0BBF1000F62D084480078401C11
:1020DC0082490870814800780E2806DB8048006829
:1020EC0050F002007E49086005E07D48006830F041
:1020FC0002007B4908607B4882469AF80000002861
:10210C0002D11AF1900AF8E700208AF800001AF1BF
:10211C0004000700BBF1810F04D380208146BBF182
:10212C00800B02E0D946002083466F480068386077
:10213C00C7F804900020C7F888000020796888420E
:10214C0005D23178C2191172761C401CF6E7206852
:10215C00002801D127600AE020688046D8F8880062
:10216C00002802D0D8F88880F8E7C8F888705E4854
:10217C00006800F087F85C480068401C5A49086009
:10218C005948006800289DD101205749086099E7FB
:10219C003868BDE8F28F0268002A06D1504A1268EE
:1021AC0052F004024E4B1A601FE04E4A11000A1DF9
:1021BC0003689A4204D04D4A914201D09031F6E71F
:1021CC004A4A914206D1464A126852F00802444BE0
:1021DC001A600AE00268D2F88820026001220A70B4
:1021EC003E4A1278521E3D4B1A70704700203B49F4
:1021FC00087001203C490860002080B2102808DAE1
:10220C000121384A80B2902303FB00221170401C3C
:10221C00F3E7002080B2402816DA00212D4A80B264
:10222C000C2303FB0022116000212A4A80B20C23EC
:10223C0003FB002211710021264A80B20C2303FB00
:10224C0000229160401CE5E72248294908600020E3
:10225C00234908600FF2610026490860704780B579
:10226C0024480068804701BD1A4A1368834204D091
:10227C00194B9A4201D00C32F7E7174B9A4200D017
:10228C00117170471A49096808600121184A1268CF
:10229C00117119490968164A126891601449096844
:1022AC000C31134A1160124909680B4A914202D150
:1022BC0008490F4A1160704710480068401E0F49CA
:1022CC0008600E480068002803D14FF47A700B495F
:1022DC00086070478C0C00208C0F0020EC1700203D
:1022EC00401700208C030020481700208C0C002085
:1022FC004C170020441700205017002084030020A6
:10230C00012110F01F029140DFF8FC2440B2430978
:10231C0042F823107047012110F01F029140DFF8A2
:10232C00EC2440B2430942F8231070472DE9F047E2
:10233C0004002078012806D046D3032823D012D3DA
:10234C00042830D040E0DFF8C80405005020060017
:10235C00DFF8C0040700002080465FF0FF308146A4
:10236C001A20824632E0DFF8B00405005020060047
:10237C00DFF8A0040700082080467FF008008146A3
:10238C001A20824622E0DFF8940405006020060043
:10239C00DFF88C040700002080465FF0FF30814698
:1023AC003020824612E0DFF87C0405005020060045
:1023BC00DFF8740407005FF4002080465FF0FF3004
:1023CC0081460020824601E0002049E02879C007C0
:1023DC0001D5002044E0DFF854040068012195F990
:1023EC00222091400843DFF844140860606868615B
:1023FC0060882884A068A861E068E861686850F08B
:10240C000100686028680660286847602868C0F882
:10241C0008802868C0F80C902868C0F820A0606874
:10242C002968C1F800016068401C2968C1F81001D6
:10243C0001202968C1F8040101202968C1F81401A0
:10244C0040F201102968C1F8200195F9220040B230
:10245C00FFF761FF95F9220040B2FFF751FF28000A
:10246C00BDE8F08770B582B004000D008DF8005007
:10247C0000AA012114F10800FFF710FE0600002E3F
:10248C0006D0DFF8B0030068002801D500F09BF8F7
:10249C00300076BDF8B504000D001600320029009E
:1024AC0014F10800FFF7FAFD0700002F06D0DFF843
:1024BC0084030068002801D500F085F83800F2BDCF
:1024CC000020DFF874130860DFF87003DFF84013A6
:1024DC0008600020DFF8381388600020DFF8301324
:1024EC0048610020DFF8281308840020DFF820134F
:1024FC0088610020DFF8181348600820DFF81013FB
:10250C0081F82200DFF83803DFF80C130860002094
:10251C00DFF8041388600020DFF8FC12486100200B
:10252C00DFF8F41208840020DFF8EC128861002038
:10253C00DFF8E41248600D20DFF8DC1281F822008D
:10254C00DFF80003DFF8D41208600020DFF8CC12AB
:10255C0088600020DFF8C41248610020DFF8BC124C
:10256C0008840020DFF8B41288610020DFF8AC1278
:10257C0048600E20DFF8A41281F82200DFF8C802B0
:10258C00DFF8A01208600020A64988600020A54949
:10259C0048610020A34908840020A24988610020DA
:1025AC00A04948600F209F4981F822009848A7490C
:1025BC0008600FF27D109E490860704780B59C48FA
:1025CC000068804701BD80B59B48006850F0010051
:1025DC00994908608E489D49086097480078C00763
:1025EC000BD5934800688047994800689949086062
:1025FC0001219848FEF79AFCEFE701BD80B58448AD
:10260C009549086095489649086096480068401CB2
:10261C009449086000F010F801BD80B57E488E49E1
:10262C00086091488E49086090480068401C8F49AA
:10263C00086000F001F801BD80B5874800680068AB
:10264C000069000738D584480068006840690007B5
:10265C0032D583480068006850F002008049096850
:10266C0008607D4800680068D0F81001401C7A4969
:10267C0009680968C1F81001774800680068D0F84B
:10268C001001754909684969734A1268128C51180E
:10269C00884207D17048006840696F490968096829
:1026AC00C1F810016C480068C069804701206A4974
:1026BC0009680968C1F81401674800680068006976
:1026CC00C00632D56448006800684069C0062CD545
:1026DC0004216148006880680068FFF7C5FD5E480A
:1026EC0000680830FFF757FD5B480068406830F41D
:1026FC0000105949096848604FF400705649096840
:10270C000968C1F820011020534909680968C8609C
:10271C0057480078002805D055480078401E544989
:10272C00087002E05348FEF771FC01BD0000000088
:10273C0080B5464800688068002836D04348006859
:10274C004068800231D402214048006880680068EB
:10275C00FFF78AFD3D480068406850F400103B4983
:10276C00096848603948006880680830374909684A
:10277C000968C1F808013548006880684068334929
:10278C0009680968C1F80C0110203049096809680A
:10279C00886037480078401C354908704FF48070C9
:1027AC002A4909680968C1F820012848006890F88E
:1027BC002200082806D00D2808D00E280AD00F2891
:1027CC000CD01DE01448214908601CE013481F4937
:1027DC00086018E013481D49086014E00C481B49B8
:1027EC00086014480068002809D5214800780028A2
:1027FC0005D111480068400840000F49086002E00C
:10280C0003481249086001BD00E100E080E200E0ED
:10281C00B0150020C0084000D4150020F815002089
:10282C00CE1845001C160020FF18410010040E4065
:10283C00AC17002038170020B417002000060E40FB
:10284C00000009400040094000800940B8170020F2
:10285C0050170020B0170020BC170020A417002030
:10286C00C0170020C4170020A8170020C81700208C
:10287C00F01700204C41080010B4DFF8EC22C0B275
:10288C000A2303FB0022D279012A0AD1B74AB64B9C
:10289C00C0B20A2404FB00331B7A12EB8302110032
:1028AC0009E0B34AB04BC0B20A2404FB00331B7AD4
:1028BC0012EB83021100AF4AC0B252F820200A601A
:1028CC000022A94BC0B20A2404FB00331A7010BCBE
:1028DC00704710B4A44AC0B20A2303FB0022D27979
:1028EC00012A0AD1A24AA04BC0B20A2404FB00332D
:1028FC001B7A12EB8302110009E09C4A9A4BC0B27E
:10290C000A2404FB00331B7A12EB83021100994A50
:10291C00C0B252F820200A600022934BC0B20A24A5
:10292C0004FB00331A7010BC704793498E4AC0B236
:10293C000A2303FB0022127A11EB82010A688D4BE9
:10294C00C0B253F820305A400A6070472DE9F0416C
:10295C0082B04FF47A644FF4FA75601B1421B0FB0B
:10296C00F1F61427FFB2002F30D05FF028081FFAC1
:10297C0088F8B8F1000F0DD0804800680090012154
:10298C0000A8FEF7D3FA0028F9D000F03BF8B8F114
:10299C000108ECE7FFB2142F06D140F2DC5100A87D
:1029AC00FEF7C4FA0028F8D00020C0B20B2809DAD0
:1029BC00FFB2791E6C4AC0B20A2303FB002251807D
:1029CC00401CF2E7A41B75197F1ECBE700F01AF828
:1029DC00C82100A8FEF7AAFA0028F9D00820FFF7B2
:1029EC004BFF0920FFF748FF0A20FFF745FF64481B
:1029FC00006850F00100624908606248FEF706FB6F
:102A0C00BDE8F38110B50024E4B20B2C80F2AA804F
:102A1C005548E4B20A2101FB04000078012872D168
:102A2C005148E4B20A2101FB0400B0F9020000286D
:102A3C0004D12000C0B2FFF74CFF5CE04A48E4B27E
:102A4C000A2101FB0400B0F90200142804D1200073
:102A5C00C0B2FFF711FF4EE04348E4B20A2101FB7C
:102A6C0004008088401E4049E4B20A2202FB041193
:102A7C0088803D48E4B20A2101FB040080880028CC
:102A8C0039D13948E4B20A2101FB040080790128CC
:102A9C001AD12000C0B2FFF71CFF3348E4B20A2160
:102AAC0001FB0400B0F90200D0F114002E49E4B28D
:102ABC000A2202FB0411888000202B49E4B20A226E
:102ACC0002FB0411887116E02000C0B2FFF7D4FE9F
:102ADC002548E4B20A2101FB040040882249E4B2F3
:102AEC000A2202FB0411888001201F49E4B20A2249
:102AFC0002FB0411887101201B49E4B20A2202FB7B
:102B0C00041108702CE01848E4B20A2101FB0400FF
:102B1C000078022824D11448E4B20A2101FB0400F5
:102B2C008088401E1049E4B20A2202FB04118880FE
:102B3C000D48E4B20A2101FB0400808800280FD163
:102B4C002000C0B2FFF7F1FE0748E4B20A2101FBF6
:102B5C00040040880449E4B20A2202FB0411888074
:102B6C00641C51E710BD000000000020300C0E402A
:102B7C00340C0E4084010020380C0E4050170020FD
:102B8C003C1700209402002062F30F2262F31F42D4
:102B9C00401810F0030308D0C91A1FD3DB0748BF35
:102BAC0000F8012D28BF20F8022D130030B4144674
:102BBC001546103928BF20E93C00FAD8490728BF30
:102BCC0020E90C0048BF40F8042D890028BF20F8EC
:102BDC00022D48BF00F8012D30BC7047C91818BF32
:102BEC0000F8012DCB0728BF00F8012D704750F8D5
:102BFC00041B61B150F8042BD30744BFA9F10103A6
:102C0C009A18002342F8043B091FFAD1EFE77047EA
:102C1C000749086808B1002070470648C008C00082
:102C2C0008600549C908C900091A0160704700BF4E
:102C3C00E0170020FF170020F8370020012110F0CA
:102C4C001F029140DFF8902740B2430942F823104D
:102C5C007047012110F01F029140DFF8802740B22D
:102C6C00430942F823107047F8B504000D00160014
:102C7C008DF80050DFF868070078102801D100208B
:102C8C005CE000AA0121DFF85C070068001DFFF77B
:102C9C0005FA0700002F50D00020DFF84C17DFF8A2
:102CAC004C271278120150540120DFF83C17DFF842
:102CBC003C27127811EB02114860DFF82C07DFF883
:102CCC002C17097810EB01100472DFF81C07DFF8E1
:102CDC001C17097810EB011086720020DFF808171A
:102CEC00DFF80827127811EB021148720020DFF888
:102CFC00F816DFF8F826127811EB0211C860DFF82D
:102D0C00EC060078401CDFF8E4160870DFF8D006FB
:102D1C000078401CDFF8C8160870DFF8D006007881
:102D2C00102803D10020DFF8C4160870DFF8C006A5
:102D3C000068002801D500F041F93800F2BD2DE9FA
:102D4C00F04104000D0016001F00DFF89406007817
:102D5C00102801D100205DE032002900DFF8840644
:102D6C000068001DFFF79AF98046B8F1000F50D0AB
:102D7C000020DFF87416DFF8742612781201505414
:102D8C000120DFF86416DFF86426127811EB0211CB
:102D9C004860DFF85406DFF85416097810EB011080
:102DAC000472DFF84406DFF84416097810EB0110C2
:102DBC0087720020DFF83016DFF83026127811EB1E
:102DCC00021148720020DFF82016DFF82026127856
:102DDC0011EB0211C860DFF814060078401CDFF814
:102DEC000C160870DFF8F8050078401CDFF8F015B9
:102DFC000870DFF8F8050078102803D10020DFF800
:102E0C00EC150870DFF8E8050068002801D500F023
:102E1C00D5F84046BDE8F08110B51224DFF8D40592
:102E2C0000680121A1400843DFF8C81508600020A4
:102E3C00DFF8C4150860DFF8C405DFF8A8150860D2
:102E4C000020DFF8A81508700020DFF8B415087012
:102E5C000020DFF88C150870DFF8A805DFF89C154A
:102E6C0008600020DFF8941548600020DFF88C150E
:102E7C0088600020DFF88415C860DFF868050068FA
:102E8C000068006850F08000DFF858150968096880
:102E9C000860DFF874050068DFF87015086005211C
:102EAC00DFF86805FEF742F80028F8D0DFF8600577
:102EBC00DFF830150968096808612420DFF824154B
:102ECC000968096808600020DFF8181509680968A6
:102EDC0048604FF4A170DFF80C1509680968486266
:102EEC004FF63560DFF8FC14096809688862200029
:102EFC0040B2FFF7AEFE200040B2FFF79FFE00206D
:102F0C00DFF8101508600020DFF80C1508600FF2D0
:102F1C00A510DFF80815086010BD80B5DFF8FC04BB
:102F2C000068804701BD0120C0B200281DD0DFF829
:102F3C00E4140968002918D0DFF8DC140968097852
:102F4C00DFF8A024126812685163DFF8CC1409680A
:102F5C00491CDFF8C4241160DFF8B8140968491E55
:102F6C00DFF8B0241160401EDEE7DFF8A814096812
:102F7C0000291CD10421DFF86C24126812689162BC
:102F8C00DFF86414DFF87824127811EB0211897AD7
:102F9C00002912D1DFF84C1409680968096851F04E
:102FAC000201DFF8402412681268116005E0042168
:102FBC00DFF83024126812685162704780B5DFF870
:102FCC003804006850F00100DFF82C140860DFF8BA
:102FDC0038040068DFF834140860DFF81C0400784B
:102FEC00C00709D5DFF83404006880470121DFF8F9
:102FFC001C04FDF79BFFF0E701BD10B5DFF82004C2
:10300C0000680400DFF81C0400680440E00508D5E3
:10301C00DFF8E403006850F08070DFF8DC13086020
:10302C0046E0A00731D5DFF8BC030068007B000741
:10303C002BD5DFF8B00300680068006BDFF8A41331
:10304C00096889680870DFF89C0300688068401C78
:10305C00DFF8901309688860DFF8B8030068401E39
:10306C00DFF8B0130860DFF8AC03006801281FD14B
:10307C00DFF8700300680068006850F00200DFF8A9
:10308C00641309680968086012E0600708D5DFF866
:10309C0054030068007B800702D5FFF744FF07E06C
:1030AC00DFF85403006850F00070DFF84C13086030
:1030BC0010BD000080B5DFF834030078DFF8401352
:1030CC000978884200F096800020DFF81813096810
:1030DC00096848602420DFF80C1309680968086047
:1030EC00DFF80403DFF8181309780901085C0028DD
:1030FC0032D1BC48006800684068BB49DFF8002347
:10310C00127811EB0211097A50EA0140B5490968AD
:10311C0009684860B348006840684068BD49086069
:10312C00B048006840680830BB490860FFF7FBFEF8
:10313C000221AC48006840680068FFF795F8A94880
:10314C000068C06850F00600A6490968C8600FF214
:10315C00A900B249086044E0A348A94909780901CB
:10316C00085C01283DD19F480068006840689D4973
:10317C000968096848609C48A149097810EB01105E
:10318C004068A449086098489D49097810EB0110E3
:10319C00C0689449096888609E48006801280AD173
:1031AC00904800680068006850F003008D49096879
:1031BC000968086009E08B4800680068006850F0F6
:1031CC000100884909680968086086480068C06879
:1031DC0050F0080083490968C8600FF2F1008F496C
:1031EC0008608548006810F07F4F03D00FF255102F
:1031FC008A49086001BD000080B57B488049097888
:10320C0010EB0110807A002818D182480068002841
:10321C0026D1744800680068006A400720D57148C0
:10322C0000680068006AC0071AD56E480068C0685C
:10323C0030F006006B490968C86011E075480068F9
:10324C0000280DD1674800680068006A400707D560
:10325C0064480068C06830F0020062490968C860C0
:10326C0060480068007B800725D404215D48006815
:10327C0040680068FEF7F8FF5A480068001DFEF72A
:10328C008AFF5D480068400840005B49086066485A
:10329C00624908605A480078401C594908705048E7
:1032AC000078401E4E49087055480078102802D10D
:1032BC000020534908705048006810F07F4F03D02D
:1032CC000FF281005549086001BD000051480068AB
:1032DC0000282DD1434800680068006A800727D574
:1032EC00404800680068006AC00721D53D48006866
:1032FC00C06830F008003B490968C8603E48006867
:10330C00400840003C4908604748444908603C4834
:10331C000078401C3A49087031480078401E30490A
:10332C00087037480078102802D100203449087002
:10333C003148006810F07F4F03D00FF20900374975
:10334C000860704780B52C480068C0013AD5264803
:10335C002649097810EB0110407A401C2249234A77
:10336C00127811EB021148721F482049097810EBB2
:10337C000110407A032821D121480078401C2049B3
:10338C00087017480078401E154908701C480078D2
:10339C00102802D100201A49087012480068007BDE
:1033AC0080070BD506210F48006840680068FEF7BF
:1033BC005BFF0C480068001DFEF7EDFE002009497C
:1033CC000968C8600C4800680002000A0A490860D5
:1033DC0015481249086001BD00E100E080E200E000
:1033EC00EF1700206C170020B0120020ED17002002
:1033FC003817002010040E40681700208416002097
:10340C00EE170020004008405017002064170020E1
:10341C001D1D02007017002074170020601700207B
:10342C002C40084020400840C1300800DFF86C02F6
:10343C00DFF86C12086004209A4908604FF4807021
:10344C009949086099489A4908609A480068C007E9
:10345C00FBD59748006898490843954908609748F8
:10346C0097490860934800688007FBD54FF40070BB
:10347C009449086042F21100934908608D48006835
:10348C000007FBD542F212008F490860894800689A
:10349C000007FBD58D48006850F444108B49086038
:1034AC00844800684006FBD57047002088490860B6
:1034BC0000208849086041F26F708749086000203D
:1034CC0086490860032086490860704780B58048AB
:1034DC00006884490968401A012817D0824800689E
:1034EC00401C814908608148006850F020007F49E9
:1034FC0008607F480078C00708D57E48FDF786FD38
:10350C0079480068FDF7A2FDFDF792FD7048006850
:10351C00744908607848006830F480107649086077
:10352C007648006830F00400744908606F48006801
:10353C0050F080406D4908606C480068400001D52F
:10354C0030BFF9E701BD6E486E4908606E486F499F
:10355C000860704780B56E486E4908606E486F49C8
:10356C0008606F486F4908606F4870490860002018
:10357C006F49086000206F4908606F486F49086008
:10358C005FF040506E4908606E486F4908606F48A4
:10359C006F4908607FF001006E49086001206E4998
:1035AC0008605FF0F6406D49086000206C490860C7
:1035BC0000206C49086000206B4908606B486C491E
:1035CC00086000206B4908606B486C4908606C48C7
:1035DC006C4908606C486D4908606D486D4908601D
:1035EC0000206D49086000206C4908606C486D49EA
:1035FC00086000206C49086000206C4908607FF06E
:10360C007E406B4908606B486B4908604FF4F07062
:10361C006A4908605A486A4908600020694908608C
:10362C0000206949086000206849086068486949B9
:10363C00086000206849086000F001F801BD5FF0E7
:10364C00011066490860002065490860032065493F
:10365C00086041F270706449086041F2707063490F
:10366C00086042F6E0606249086042F6E060614939
:10367C00086003206049086040F2DC505F49086034
:10368C0040F2DC505E49086040F6B8305D49086095
:10369C0040F6B8305C4908607047000073EDFC27B9
:1036AC0010040E4040040E4000040E4019F0370088
:1036BC0020040E4068040E4000003701013F072033
:1036CC0028040E4000080E4030040E401C040E402E
:1036DC00501700205417002014E000E018E000E020
:1036EC0010E000E05C17002058170020381700206D
:1036FC00141700201002002070040E4010ED00E0A2
:10370C000085011054120E40010000A550120E400D
:10371C0007000384000C0E40F8FFFC7B040C0E40E9
:10372C00F9D755BF100C0E400628AA40140C0E40B9
:10373C00200C0E40240C0E4000000188300C0E4072
:10374C00340C0E4000060004500C0E40FFF9FFFB39
:10375C00540C0E40600C0E40640C0E40700C0E406D
:10376C00800C0E40840C0E408C0C0E40000001B4FA
:10377C00A00C0E40A40C0E40E7FFBF01000E0E4043
:10378C0018004000040E0E40E0FFBF01100E0E406A
:10379C001F004000140E0E40200E0E40240E0E4052
:1037AC0000FEBF01300E0E40340E0E40500E0E4087
:1037BC00540E0E401FFEFF01600E0E40640E0E40B4
:1037CC00700E0E40800E0E40840E0E408C0E0E407D
:1037DC00E0FF1F00A00E0E40A40E0E4000C00840DB
:1037EC0020C0084000C208400CC2084010C208406B
:1037FC0004C2084008C2084020C208402CC208403D
:10380C0030C2084024C2084028C20840012110F0F0
:10381C001F029140864A40B2430942F82310704778
:10382C00012110F01F029140824A40B2430942F834
:10383C002310704738B5002400250020C0B204289E
:10384C000DDA00217F4AC0B2815400217A4AC0B2FD
:10385C00815400217C4AC0B28154401CEEE7002008
:10386C00C0B204281ADA7949C0B211EB4001497888
:10387C00002905D17649C0B251F820100C430BE059
:10388C007249C0B211EB40014978802904D17049CA
:10389C00C0B251F820100D43401CE1E76D480460A4
:1038AC006D4805606D48006804006D4800680500AF
:1038BC000A20FFF7B5FF0B20FFF7B2FF0A20FFF736
:1038CC00A5FF0B20FFF7A2FF0FF249006549086026
:1038DC006548006850F00200634908606348FDF7D2
:1038EC0095FB31BD80B55F480068804701BD020083
:1038FC00D2B2042A0CDA5548D2B210EB420040780E
:10390C00C9B2884204D15248D2B250F8220000E029
:10391C00002070470020C0B204280ADA4949C0B21E
:10392C00415C002903D00FF20D014E4A1160401C7E
:10393C00F1E7704770B54E484A4908600026F6B268
:10394C00042E74DA4B484149F6B211EB4601497822
:10395C0010EB810004003F483C49F6B211EB4601E4
:10396C00497810EB810005003648F6B2305C00282F
:10397C005BD041483B49086019214048F6B210EB36
:10398C008600FDF7D3FA00284FD03048F6B210F875
:10399C001600002811D12068C0432D49F6B251F809
:1039AC002610084204D001202749F6B2705414E0C6
:1039BC0000202549F6B270540FE020682449F6B275
:1039CC0051F82610084204D001201F49F6B2705459
:1039DC0003E000201C49F6B270541B48F6B2305C70
:1039EC001549F6B2715C884214D01748F6B2305CB7
:1039FC001149F6B270541048F6B2305C012809D166
:103A0C0001200E49F6B270541D4800680C49F6B2FC
:103A1C0041F8260000200B49F6B2705428680C4976
:103A2C00F6B251F8261008432860761C87E770BD63
:103A3C0000E100E080E200E00817002010170020F1
:103A4C0074160020001700200C17002060030020C3
:103A5C0094420800400C0E40400E0E404C0C0E40A0
:103A6C004C0E0E40041700203C17002018030020B9
:103A7C00213908003C0C0E40413908006416002026
:103A8C0050170020012110F01F029140604A40B2F3
:103A9C00430942F823107047012110F01F02914096
:103AAC005C4A40B2430942F82310704710B588B005
:103ABC0000A859492022FDF767FA0020C0B2082857
:103ACC0009DA00A9C0B251F82010544AC0B242F829
:103ADC002010401CF2E70024E4B21D2C09DA20006F
:103AEC0040B2FFF7CFFF200040B2FFF7D5FF641CB8
:103AFC00F2E708B010BD80B50020FEF7EAFE032007
:103B0C00FEF7E7FE0120FEF7E4FE0620FEF7E1FEDD
:103B1C000220FEF7DEFE0420FEF7DBFE0520FEF79A
:103B2C00D8FE0720FEF7A8FEFEE73D480068401CC3
:103B3C003B4908603B48006830F0804039490860D8
:103B4C0039480088401E38490880374800880028CA
:103B5C0008D14FF47A703449088034480068401C0E
:103B6C00324908607047F8B531480068040014F415
:103B7C0000300500002D1CD00027FFB2042F18DAEE
:103B8C0000213800C0B2FFF7B2FE060035420ED05D
:103B9C002848006830432749086001202649FFB2B5
:103BAC0078541F4800682549FFB241F827007F1C54
:103BBC00E3E70A20FFF770FFF1BDF8B52048006875
:103BCC00040014F007000500002D1CD00027FFB2E4
:103BDC00042F18DA80213800C0B2FFF788FE0600E7
:103BEC0035420ED017480068304316490860012052
:103BFC001149FFB278540A4800681049FFB241F8E5
:103C0C0027007F1CE3E74FF4006002490860F1BD18
:103C1C0080E100E080E200E02C41080000E400E0DC
:103C2C00501700203817002088030020541700205C
:103C3C004C0C0E40440C0E40001700206416002063
:103C4C004C0E0E40440E0E4000B589B000A82D4914
:103C5C000CC90CC00839083802A82B491622FDF7EC
:103C6C0083F90FF2BD00294908604FF40070284910
:103C7C000860284800682849086028212648FDF774
:103C8C0055F90028F9D0012200213C20FEF7ECFF69
:103C9C00012300AA06213C20FFF751F81D480068BB
:103CAC001D490860C8211C48FDF740F90028F9D0CF
:103CBC0000220C213C20FEF7D7FF0820FEF7DCFD8C
:103CCC000920FEF7D9FD0A20FEF7D6FD012240217E
:103CDC003C20FEF7C9FF002302AA14213C20FFF769
:103CEC002EF80C4800680C4908600C48006850F02D
:103CFC0008000A49086009B000BD80B50348006897
:103D0C00804701BDD8420800284208003017002027
:103D1C00300E0E4050170020341700203C170020A6
:103D2C0070470A0D00B587B000A826491722FDF789
:103D3C001BF9002080B2B0F5097F05D20021204A82
:103D4C0080B28154401CF5E71D481F4908601C488F
:103D5C001E49086003201E4908701E481C49486013
:103D6C004FF480701A4988601548194988611648C3
:103D7C001749C8614FF4097015490884002014498B
:103D8C0008730020124948731148FDF781FC124951
:103D9C0008600FF229001149086000A8FDF736F9F8
:103DAC000F48006850F020000D49086007B000BDB6
:103DBC0080B50A480068804701BD000070470000CC
:103DCC008C0F002040420800D4170020D817002088
:103DDC0040160020000C0E40D0170020CC170020FD
:103DEC003C17002080B52948006850F00040274956
:103DFC000860FFF7A8FBFFF7ADFBFFF717FBFFF71A
:103E0C0055FEFFF752FBFEF7F1F9FEF759FBFDF7F4
:103E1C00AFF9FDF7F9FCFEF7FFFFFEF797FDFFF793
:103E2C0009FDFFF711FFFCF72BFBFFF77BFF00F001
:103E3C0037F8FDF763F9154800684000400813494E
:103E4C000860134813490860FEF7DCFDFFF74AFDD4
:103E5C00FEF7B4FBFDF757FDFFF75FF8FEF7FFF930
:103E6C00FDF7D5F9FFF749FFFCF7D2FBFFF7A0FFF1
:103E7C0000F01BF85FF0004007490860FFF726FBD5
:103E8C005FF0004005490860DBE700BF38170020F1
:103E9C00010000A550120E40300C0E40340C0E40A8
:103EAC000FF2150003490860704780B5014800689F
:103EBC00804701BDDC170020704700000A0D496ED9
:103ECC00697469616C697A6174696F6E20636F6D76
:103EDC00706C6574652E205479706520656E2B634B
:103EEC00303020666F72206465627567206D656E78
:103EFC00752E20204661696C6564207461736B7348
:103F0C003A0A0D004C4544000000000000004255E8
:103F1C0054544F4E000000004445425547000000E9
:103F2C0000004C434400000000000000414E5400CF
:103F3C0000000000000053440000000000000000DE
:103F4C000A0D4E6F20737061636520696E20416E9F
:103F5C007451756575654170706C69636174696FD6
:103F6C006E4D6573736167650A0D000010B50749E6
:103F7C0079441831064C7C44163404E00A68081D58
:103F8C00511888470146A142F8D110BD70010000BC
:103F9C0090010000416E7454783A206D7367206173
:103FAC006C726561647920696E2070726F677265DE
:103FBC0073730A0D0000000053686F77206465620C
:103FCC00756720636F6D6D616E64206C697374200E
:103FDC00202020202020202000000000546F676744
:103FEC006C65204C4544207465737420202020207F
:103FFC002020202020202020202020200000000035
:10400C00546F67676C652073797374656D20746980
:10401C006D696E67207761726E696E672020202053
:10402C000000000044756D6D793320202020202085
:10403C002020202020202020202020202020202074
:10404C00202020200000000044756D6D7934202064
:10405C002020202020202020202020202020202054
:10406C0020202020202020200000000044756D6DB1
:10407C0079352020202020202020202020202020C6
:10408C0020202020202020202020202000000000A4
:10409C0044756D6D79362020202020202020202092
:1040AC002020202020202020202020202020202004
:1040BC000000000044756D6D7937202020202020F1
:1040CC0020202020202020202020202020202020E4
:1040DC0020202020000000000A0D53797374656DB8
:1040EC002074696D652076696F6C6174696F6E20E0
:1040FC007265706F7274696E67200000F3EAFFFFDF
:10410C00681400008C03002000000000D3CEFFFFD9
:10411C008C030000C0010000000000200000000023
:10412C00F000F0F040F0F0F0F0F05050503030F083
:10413C00F0F020F020F0004040F0F0F0F010000023
:10414C000A0D5541525420636F756E746572206F61
:10415C007574206F662073796E630A0D0000000081
:10416C000D0A414E54206578706563746564206D4A
:10417C007367206661696C0A0D0000000A0A0D4124
:10418C007661696C61626C6520636F6D6D616E64E4
:10419C00733A0A0D0000000000F00CF8002801D062
:1041AC00FFF7E4FE0020C046C046FFF71BFE00F000
:1041BC000BF800000249034801600120704700BF62
:1041CC000000080008ED00E000F000B80746384693
:1041DC0000F002F8FBE7000080B5C046C046024A7A
:1041EC0011001820ABBEFBE726000200416E745292
:1041FC00783A206D657373616765206661696C65DB
:10420C00640A0D00416E7454783A2053454E207464
:10421C00696D656F75740A0D0000000057454C43BD
:10422C004F4D452120202020202020202020202000
:10423C0020000000536443617264207461736B202E
:10424C0064697361626C65640A0D0000416E74529E
:10425C00783A2074696D656F75740A0D0000000062
:10426C00416E7454783A204E6F20746F6B656E0AF1
:10427C000D000000416E7454783A204E6F20535953
:10428C004E430A0D00000000000002000100000077
:10429C0002000000040000000A0D44756D6D7921C8
:1042AC000A0A0D000A0D4C656420546573742000D5
:1042BC00C046C046C046C046FFF76EFF024D003EEA
:1042CC00000000004E4F4E450000000038391472BB
:1042DC005E6D00000100140014000101800001005B
:1042EC0014001400010180000100140014000101ED
:1042FC008000010014001400010180000100140072
:10430C001400010180000100140014000101800060
:10431C0001001400140001018000010014001400BD
:10432C000101800001001400140001018000010053
:10433C00140014000101800001001400140001019C
:10434C00800000004C656E677468206D69736D6148
:10435C007463680A0D000000436F6D6D616E64201C
:10436C006572726F720A0D0000000000556E657860
:10437C00706563746564206576656E740A0D000063
:10438C00556E6578706563746564206D65737361D3
:10439C0067650A0D0A0A0D2A2A2A2052415A4F52E1
:1043AC002053414D335532204153434949204C430E
:1043BC004420444556454C4F504D454E5420424F99
:1043CC00415244202A2A2A0A0D44656275672072DC
:1043DC00656164790A0D00000A0D232323206E52B7
:1043EC004635313432322050726F6772616D6D69AF
:1043FC006E67204D6F64653A206E6F20414E5420DD
:10440C0066756E6374696F6E616C697479202323B1
:10441C0023230A0D00000000C43F080051120800BD
:10442C00E83F0800031308000C400800B51308000F
:10443C0030400800E912080054400800E912080056
:10444C0078400800E91208009C400800E9120800B6
:10445C00C0400800E91208000020000000400000E5
:10446C000000040000000100000008000000020031
:10447C000080000000001000000400000008000094
:10448C00001000006661696C65642E20486F7374BF
:10449C0020494F732073657420746F2048695A2E1D
:1044AC000D0A00000A0D5472616E736D6974206DF3
:1044BC006573736167652074696D656F75740A0D3A
:1044CC00000000000D0A2A2A2A20436F6D6D616ED0
:1044DC006420746F6F206C6F6E67202A2A2A0D0A75
:1044EC000A0000000A0D2A2A2A20316D73207469F3
:1044FC006D696E672076696F6C6174696F6E3A20B6
:10450C000000000044656661756C74204368616E40
:10451C006E656C20526573706F6E736520000000C1
:10452C00414E54206368616E6E656C20756E6173CC
:10453C007369676E20000000496E697469616C696B
:10454C007A696E6720414E542E2E2E2000000000FA
:10455C000A0A4465627567207461736B2065727218
:10456C006F723A20000000004C45442066756E6363
:10457C0074696F6E732072656164790A0D000000B6
:10458C00535350205065726970686572616C73206A
:10459C0052656164790A0D00496E76616C6964201C
:1045AC0053535020617474656D70740D0A000000D3
:1045BC00414E54206368616E6E656C206173736943
:1045CC00676E2000414E54206368616E6E656C20EE
:1045DC00636C6F7365200000414E54206368616EFC
:1045EC006E656C206F70656E2000000042757474EF
:1045FC006F6E207461736B2072656164790A0D00B3
:10460C000A496E76616C696420636F6D6D616E64CE
:10461C000A0A0D00414E5420666C6167733A0A0D0C
:10462C00000000004F4B0A0D000000004641494CB1
:10463C000A0D00000000008000800080656E2B6376
:10464C00000000004F4E0D0A000000004F46460DC2
:10465C000A00000008200800E8030000E80301003D
:04000005000842BDF0
:00000001FF
